:020000040000FA
:100000002220022849200228FA30A0000000A00B7C
:1000100006280800FA30A1000420A10B0C280800D3
:100020000230A4000A20A40B122808000430A20009
:100030000A20A20B182808000530A3001620A30BE5
:100040001E2808008316F0308600831286010800FF
:1000500083120F3086000A208601042008008312D4
:100060000F308600162086011620080083120F30FC
:100070008600162086010A200A2008008312061432
:1000800010208614102006151020861510208601D9
:100090000800831206141020861410200615102064
:1000A00086151020861110200611102086101020B1
:0400B0000610102006
:0400B40000340034E0
:02400E00103F61
:00000001FF
