:020000040000FA
:1000000061200028FA30A0000000A00B042808009E
:10001000FA30A1000220A10B0A2808000430A20037
:100020000820A20B1028080083160610861006115F
:1000300086118312061486140615861502200610F2
:1000400086100611861102200800831606108610FD
:1000500006118611831206148614061586150E20C5
:1000600006108610061186110E2008008316061051
:10007000861006118611831206148614061586153D
:100080000E20061086100611861108200820080090
:100090008316061086100611861183120614082096
:1000A0000820861408200820061508200820861538
:1000B0000820082006108610061186110820082046
:1000C0000800831606108610061186118312061486
:1000D000082008208614082008200615082008207B
:1000E00086150820082086110820082006110820FF
:1000F0000820861008200820061008200820080084
:040100000034003493
:02400E00013F70
:00000001FF
