:020000040000FA
:100000002A2002283120312024203C203C2024209A
:100010004720472024205320532024206820682094
:1000200024200228FA30A0000000A00B14280800A9
:10003000FA30A1001220A10B1A2808000430A200F7
:100040001820A20B202808000530A3001E20A30BB7
:10005000262808008316F0308600831200308600C0
:1000600008008316F030860083120F3086001820B7
:1000700000308600122008008316F03086008312BC
:100080000F3086001E20003086001E2008008316D8
:10009000F030860083120F3086001E20003086006C
:1000A0001820182008008316F030860083120614EA
:1000B000182018208614182018200615182018203B
:1000C00086151820182000308600182018200800F7
:1000D0008316F03086008312061418201820861428
:1000E000182018200615182018208615182018200A
:1000F00086111820182006111820182086101820A4
:0A010000182006101820182008002F
:04010A000034003489
:02400E00103F61
:00000001FF
